{
  "contracts/Storage.sol": {
    "Storage": {
      "abi": [
        {
          "inputs": [
            {
              "internalType": "uint256",
              "name": "_favNumber",
              "type": "uint256"
            },
            {
              "internalType": "string",
              "name": "_name",
              "type": "string"
            }
          ],
          "name": "addPersonToList",
          "outputs": [],
          "stateMutability": "nonpayable",
          "type": "function"
        },
        {
          "inputs": [],
          "name": "favoriteNumber",
          "outputs": [
            {
              "internalType": "uint256",
              "name": "",
              "type": "uint256"
            }
          ],
          "stateMutability": "view",
          "type": "function"
        },
        {
          "inputs": [
            {
              "internalType": "uint256",
              "name": "",
              "type": "uint256"
            }
          ],
          "name": "listOfPeople",
          "outputs": [
            {
              "internalType": "uint256",
              "name": "favNumber",
              "type": "uint256"
            },
            {
              "internalType": "string",
              "name": "name",
              "type": "string"
            }
          ],
          "stateMutability": "view",
          "type": "function"
        },
        {
          "inputs": [
            {
              "internalType": "string",
              "name": "",
              "type": "string"
            }
          ],
          "name": "nameToFavNumber",
          "outputs": [
            {
              "internalType": "uint256",
              "name": "",
              "type": "uint256"
            }
          ],
          "stateMutability": "view",
          "type": "function"
        },
        {
          "inputs": [],
          "name": "retrieve",
          "outputs": [
            {
              "internalType": "uint256",
              "name": "",
              "type": "uint256"
            }
          ],
          "stateMutability": "view",
          "type": "function"
        },
        {
          "inputs": [
            {
              "internalType": "uint256",
              "name": "_favoriteNumber",
              "type": "uint256"
            }
          ],
          "name": "store",
          "outputs": [],
          "stateMutability": "nonpayable",
          "type": "function"
        }
      ],
      "evm": {
        "bytecode": {
          "linkReferences": {},
          "object": "6080604052348015600f57600080fd5b506109798061001f6000396000f3fe608060405234801561001057600080fd5b50600436106100625760003560e01c806306d438fc146100675780632e64cec1146100835780632ebce631146100a157806343ec8f47146100d2578063471f7cdf146101025780636057361d14610120575b600080fd5b610081600480360381019061007c9190610467565b61013c565b005b61008b6101cb565b60405161009891906104d2565b60405180910390f35b6100bb60048036038101906100b691906104ed565b6101d4565b6040516100c9929190610599565b60405180910390f35b6100ec60048036038101906100e791906105c9565b610290565b6040516100f991906104d2565b60405180910390f35b61010a6102be565b60405161011791906104d2565b60405180910390f35b61013a600480360381019061013591906104ed565b6102c4565b005b6000604051806040016040528084815260200183815250905060018190806001815401808255809150506001900390600052602060002090600202016000909190919091506000820151816000015560208201518160010190816101a0919061081e565b505050826002836040516101b4919061092c565b908152602001604051809103902081905550505050565b60008054905090565b600181815481106101e457600080fd5b906000526020600020906002020160009150905080600001549080600101805461020d90610641565b80601f016020809104026020016040519081016040528092919081815260200182805461023990610641565b80156102865780601f1061025b57610100808354040283529160200191610286565b820191906000526020600020905b81548152906001019060200180831161026957829003601f168201915b5050505050905082565b6002818051602081018201805184825260208301602085012081835280955050505050506000915090505481565b60005481565b806000819055506102d36101cb565b5050565b6000604051905090565b600080fd5b600080fd5b6000819050919050565b6102fe816102eb565b811461030957600080fd5b50565b60008135905061031b816102f5565b92915050565b600080fd5b600080fd5b6000601f19601f8301169050919050565b7f4e487b7100000000000000000000000000000000000000000000000000000000600052604160045260246000fd5b6103748261032b565b810181811067ffffffffffffffff821117156103935761039261033c565b5b80604052505050565b60006103a66102d7565b90506103b2828261036b565b919050565b600067ffffffffffffffff8211156103d2576103d161033c565b5b6103db8261032b565b9050602081019050919050565b82818337600083830152505050565b600061040a610405846103b7565b61039c565b90508281526020810184848401111561042657610425610326565b5b6104318482856103e8565b509392505050565b600082601f83011261044e5761044d610321565b5b813561045e8482602086016103f7565b91505092915050565b6000806040838503121561047e5761047d6102e1565b5b600061048c8582860161030c565b925050602083013567ffffffffffffffff8111156104ad576104ac6102e6565b5b6104b985828601610439565b9150509250929050565b6104cc816102eb565b82525050565b60006020820190506104e760008301846104c3565b92915050565b600060208284031215610503576105026102e1565b5b60006105118482850161030c565b91505092915050565b600081519050919050565b600082825260208201905092915050565b60005b83811015610554578082015181840152602081019050610539565b60008484015250505050565b600061056b8261051a565b6105758185610525565b9350610585818560208601610536565b61058e8161032b565b840191505092915050565b60006040820190506105ae60008301856104c3565b81810360208301526105c08184610560565b90509392505050565b6000602082840312156105df576105de6102e1565b5b600082013567ffffffffffffffff8111156105fd576105fc6102e6565b5b61060984828501610439565b91505092915050565b7f4e487b7100000000000000000000000000000000000000000000000000000000600052602260045260246000fd5b6000600282049050600182168061065957607f821691505b60208210810361066c5761066b610612565b5b50919050565b60008190508160005260206000209050919050565b60006020601f8301049050919050565b600082821b905092915050565b6000600883026106d47fffffffffffffffffffffffffffffffffffffffffffffffffffffffffffffffff82610697565b6106de8683610697565b95508019841693508086168417925050509392505050565b6000819050919050565b600061071b610716610711846102eb565b6106f6565b6102eb565b9050919050565b6000819050919050565b61073583610700565b61074961074182610722565b8484546106a4565b825550505050565b600090565b61075e610751565b61076981848461072c565b505050565b5b8181101561078d57610782600082610756565b60018101905061076f565b5050565b601f8211156107d2576107a381610672565b6107ac84610687565b810160208510156107bb578190505b6107cf6107c785610687565b83018261076e565b50505b505050565b600082821c905092915050565b60006107f5600019846008026107d7565b1980831691505092915050565b600061080e83836107e4565b9150826002028217905092915050565b6108278261051a565b67ffffffffffffffff8111156108405761083f61033c565b5b61084a8254610641565b610855828285610791565b600060209050601f8311600181146108885760008415610876578287015190505b6108808582610802565b8655506108e8565b601f19841661089686610672565b60005b828110156108be57848901518255600182019150602085019450602081019050610899565b868310156108db57848901516108d7601f8916826107e4565b8355505b6001600288020188555050505b505050505050565b600081905092915050565b60006109068261051a565b61091081856108f0565b9350610920818560208601610536565b80840191505092915050565b600061093882846108fb565b91508190509291505056fea264697066735822122000b28ce13e728b4405489f71a4f00cd92d8a953d5da0a9fd17bd4f9f1f7a478864736f6c634300081c0033",
          "opcodes": "PUSH1 0x80 PUSH1 0x40 MSTORE CALLVALUE DUP1 ISZERO PUSH1 0xF JUMPI PUSH1 0x0 DUP1 REVERT JUMPDEST POP PUSH2 0x979 DUP1 PUSH2 0x1F PUSH1 0x0 CODECOPY PUSH1 0x0 RETURN INVALID PUSH1 0x80 PUSH1 0x40 MSTORE CALLVALUE DUP1 ISZERO PUSH2 0x10 JUMPI PUSH1 0x0 DUP1 REVERT JUMPDEST POP PUSH1 0x4 CALLDATASIZE LT PUSH2 0x62 JUMPI PUSH1 0x0 CALLDATALOAD PUSH1 0xE0 SHR DUP1 PUSH4 0x6D438FC EQ PUSH2 0x67 JUMPI DUP1 PUSH4 0x2E64CEC1 EQ PUSH2 0x83 JUMPI DUP1 PUSH4 0x2EBCE631 EQ PUSH2 0xA1 JUMPI DUP1 PUSH4 0x43EC8F47 EQ PUSH2 0xD2 JUMPI DUP1 PUSH4 0x471F7CDF EQ PUSH2 0x102 JUMPI DUP1 PUSH4 0x6057361D EQ PUSH2 0x120 JUMPI JUMPDEST PUSH1 0x0 DUP1 REVERT JUMPDEST PUSH2 0x81 PUSH1 0x4 DUP1 CALLDATASIZE SUB DUP2 ADD SWAP1 PUSH2 0x7C SWAP2 SWAP1 PUSH2 0x467 JUMP JUMPDEST PUSH2 0x13C JUMP JUMPDEST STOP JUMPDEST PUSH2 0x8B PUSH2 0x1CB JUMP JUMPDEST PUSH1 0x40 MLOAD PUSH2 0x98 SWAP2 SWAP1 PUSH2 0x4D2 JUMP JUMPDEST PUSH1 0x40 MLOAD DUP1 SWAP2 SUB SWAP1 RETURN JUMPDEST PUSH2 0xBB PUSH1 0x4 DUP1 CALLDATASIZE SUB DUP2 ADD SWAP1 PUSH2 0xB6 SWAP2 SWAP1 PUSH2 0x4ED JUMP JUMPDEST PUSH2 0x1D4 JUMP JUMPDEST PUSH1 0x40 MLOAD PUSH2 0xC9 SWAP3 SWAP2 SWAP1 PUSH2 0x599 JUMP JUMPDEST PUSH1 0x40 MLOAD DUP1 SWAP2 SUB SWAP1 RETURN JUMPDEST PUSH2 0xEC PUSH1 0x4 DUP1 CALLDATASIZE SUB DUP2 ADD SWAP1 PUSH2 0xE7 SWAP2 SWAP1 PUSH2 0x5C9 JUMP JUMPDEST PUSH2 0x290 JUMP JUMPDEST PUSH1 0x40 MLOAD PUSH2 0xF9 SWAP2 SWAP1 PUSH2 0x4D2 JUMP JUMPDEST PUSH1 0x40 MLOAD DUP1 SWAP2 SUB SWAP1 RETURN JUMPDEST PUSH2 0x10A PUSH2 0x2BE JUMP JUMPDEST PUSH1 0x40 MLOAD PUSH2 0x117 SWAP2 SWAP1 PUSH2 0x4D2 JUMP JUMPDEST PUSH1 0x40 MLOAD DUP1 SWAP2 SUB SWAP1 RETURN JUMPDEST PUSH2 0x13A PUSH1 0x4 DUP1 CALLDATASIZE SUB DUP2 ADD SWAP1 PUSH2 0x135 SWAP2 SWAP1 PUSH2 0x4ED JUMP JUMPDEST PUSH2 0x2C4 JUMP JUMPDEST STOP JUMPDEST PUSH1 0x0 PUSH1 0x40 MLOAD DUP1 PUSH1 0x40 ADD PUSH1 0x40 MSTORE DUP1 DUP5 DUP2 MSTORE PUSH1 0x20 ADD DUP4 DUP2 MSTORE POP SWAP1 POP PUSH1 0x1 DUP2 SWAP1 DUP1 PUSH1 0x1 DUP2 SLOAD ADD DUP1 DUP3 SSTORE DUP1 SWAP2 POP POP PUSH1 0x1 SWAP1 SUB SWAP1 PUSH1 0x0 MSTORE PUSH1 0x20 PUSH1 0x0 KECCAK256 SWAP1 PUSH1 0x2 MUL ADD PUSH1 0x0 SWAP1 SWAP2 SWAP1 SWAP2 SWAP1 SWAP2 POP PUSH1 0x0 DUP3 ADD MLOAD DUP2 PUSH1 0x0 ADD SSTORE PUSH1 0x20 DUP3 ADD MLOAD DUP2 PUSH1 0x1 ADD SWAP1 DUP2 PUSH2 0x1A0 SWAP2 SWAP1 PUSH2 0x81E JUMP JUMPDEST POP POP POP DUP3 PUSH1 0x2 DUP4 PUSH1 0x40 MLOAD PUSH2 0x1B4 SWAP2 SWAP1 PUSH2 0x92C JUMP JUMPDEST SWAP1 DUP2 MSTORE PUSH1 0x20 ADD PUSH1 0x40 MLOAD DUP1 SWAP2 SUB SWAP1 KECCAK256 DUP2 SWAP1 SSTORE POP POP POP POP JUMP JUMPDEST PUSH1 0x0 DUP1 SLOAD SWAP1 POP SWAP1 JUMP JUMPDEST PUSH1 0x1 DUP2 DUP2 SLOAD DUP2 LT PUSH2 0x1E4 JUMPI PUSH1 0x0 DUP1 REVERT JUMPDEST SWAP1 PUSH1 0x0 MSTORE PUSH1 0x20 PUSH1 0x0 KECCAK256 SWAP1 PUSH1 0x2 MUL ADD PUSH1 0x0 SWAP2 POP SWAP1 POP DUP1 PUSH1 0x0 ADD SLOAD SWAP1 DUP1 PUSH1 0x1 ADD DUP1 SLOAD PUSH2 0x20D SWAP1 PUSH2 0x641 JUMP JUMPDEST DUP1 PUSH1 0x1F ADD PUSH1 0x20 DUP1 SWAP2 DIV MUL PUSH1 0x20 ADD PUSH1 0x40 MLOAD SWAP1 DUP2 ADD PUSH1 0x40 MSTORE DUP1 SWAP3 SWAP2 SWAP1 DUP2 DUP2 MSTORE PUSH1 0x20 ADD DUP3 DUP1 SLOAD PUSH2 0x239 SWAP1 PUSH2 0x641 JUMP JUMPDEST DUP1 ISZERO PUSH2 0x286 JUMPI DUP1 PUSH1 0x1F LT PUSH2 0x25B JUMPI PUSH2 0x100 DUP1 DUP4 SLOAD DIV MUL DUP4 MSTORE SWAP2 PUSH1 0x20 ADD SWAP2 PUSH2 0x286 JUMP JUMPDEST DUP3 ADD SWAP2 SWAP1 PUSH1 0x0 MSTORE PUSH1 0x20 PUSH1 0x0 KECCAK256 SWAP1 JUMPDEST DUP2 SLOAD DUP2 MSTORE SWAP1 PUSH1 0x1 ADD SWAP1 PUSH1 0x20 ADD DUP1 DUP4 GT PUSH2 0x269 JUMPI DUP3 SWAP1 SUB PUSH1 0x1F AND DUP3 ADD SWAP2 JUMPDEST POP POP POP POP POP SWAP1 POP DUP3 JUMP JUMPDEST PUSH1 0x2 DUP2 DUP1 MLOAD PUSH1 0x20 DUP2 ADD DUP3 ADD DUP1 MLOAD DUP5 DUP3 MSTORE PUSH1 0x20 DUP4 ADD PUSH1 0x20 DUP6 ADD KECCAK256 DUP2 DUP4 MSTORE DUP1 SWAP6 POP POP POP POP POP POP PUSH1 0x0 SWAP2 POP SWAP1 POP SLOAD DUP2 JUMP JUMPDEST PUSH1 0x0 SLOAD DUP2 JUMP JUMPDEST DUP1 PUSH1 0x0 DUP2 SWAP1 SSTORE POP PUSH2 0x2D3 PUSH2 0x1CB JUMP JUMPDEST POP POP JUMP JUMPDEST PUSH1 0x0 PUSH1 0x40 MLOAD SWAP1 POP SWAP1 JUMP JUMPDEST PUSH1 0x0 DUP1 REVERT JUMPDEST PUSH1 0x0 DUP1 REVERT JUMPDEST PUSH1 0x0 DUP2 SWAP1 POP SWAP2 SWAP1 POP JUMP JUMPDEST PUSH2 0x2FE DUP2 PUSH2 0x2EB JUMP JUMPDEST DUP2 EQ PUSH2 0x309 JUMPI PUSH1 0x0 DUP1 REVERT JUMPDEST POP JUMP JUMPDEST PUSH1 0x0 DUP2 CALLDATALOAD SWAP1 POP PUSH2 0x31B DUP2 PUSH2 0x2F5 JUMP JUMPDEST SWAP3 SWAP2 POP POP JUMP JUMPDEST PUSH1 0x0 DUP1 REVERT JUMPDEST PUSH1 0x0 DUP1 REVERT JUMPDEST PUSH1 0x0 PUSH1 0x1F NOT PUSH1 0x1F DUP4 ADD AND SWAP1 POP SWAP2 SWAP1 POP JUMP JUMPDEST PUSH32 0x4E487B7100000000000000000000000000000000000000000000000000000000 PUSH1 0x0 MSTORE PUSH1 0x41 PUSH1 0x4 MSTORE PUSH1 0x24 PUSH1 0x0 REVERT JUMPDEST PUSH2 0x374 DUP3 PUSH2 0x32B JUMP JUMPDEST DUP2 ADD DUP2 DUP2 LT PUSH8 0xFFFFFFFFFFFFFFFF DUP3 GT OR ISZERO PUSH2 0x393 JUMPI PUSH2 0x392 PUSH2 0x33C JUMP JUMPDEST JUMPDEST DUP1 PUSH1 0x40 MSTORE POP POP POP JUMP JUMPDEST PUSH1 0x0 PUSH2 0x3A6 PUSH2 0x2D7 JUMP JUMPDEST SWAP1 POP PUSH2 0x3B2 DUP3 DUP3 PUSH2 0x36B JUMP JUMPDEST SWAP2 SWAP1 POP JUMP JUMPDEST PUSH1 0x0 PUSH8 0xFFFFFFFFFFFFFFFF DUP3 GT ISZERO PUSH2 0x3D2 JUMPI PUSH2 0x3D1 PUSH2 0x33C JUMP JUMPDEST JUMPDEST PUSH2 0x3DB DUP3 PUSH2 0x32B JUMP JUMPDEST SWAP1 POP PUSH1 0x20 DUP2 ADD SWAP1 POP SWAP2 SWAP1 POP JUMP JUMPDEST DUP3 DUP2 DUP4 CALLDATACOPY PUSH1 0x0 DUP4 DUP4 ADD MSTORE POP POP POP JUMP JUMPDEST PUSH1 0x0 PUSH2 0x40A PUSH2 0x405 DUP5 PUSH2 0x3B7 JUMP JUMPDEST PUSH2 0x39C JUMP JUMPDEST SWAP1 POP DUP3 DUP2 MSTORE PUSH1 0x20 DUP2 ADD DUP5 DUP5 DUP5 ADD GT ISZERO PUSH2 0x426 JUMPI PUSH2 0x425 PUSH2 0x326 JUMP JUMPDEST JUMPDEST PUSH2 0x431 DUP5 DUP3 DUP6 PUSH2 0x3E8 JUMP JUMPDEST POP SWAP4 SWAP3 POP POP POP JUMP JUMPDEST PUSH1 0x0 DUP3 PUSH1 0x1F DUP4 ADD SLT PUSH2 0x44E JUMPI PUSH2 0x44D PUSH2 0x321 JUMP JUMPDEST JUMPDEST DUP2 CALLDATALOAD PUSH2 0x45E DUP5 DUP3 PUSH1 0x20 DUP7 ADD PUSH2 0x3F7 JUMP JUMPDEST SWAP2 POP POP SWAP3 SWAP2 POP POP JUMP JUMPDEST PUSH1 0x0 DUP1 PUSH1 0x40 DUP4 DUP6 SUB SLT ISZERO PUSH2 0x47E JUMPI PUSH2 0x47D PUSH2 0x2E1 JUMP JUMPDEST JUMPDEST PUSH1 0x0 PUSH2 0x48C DUP6 DUP3 DUP7 ADD PUSH2 0x30C JUMP JUMPDEST SWAP3 POP POP PUSH1 0x20 DUP4 ADD CALLDATALOAD PUSH8 0xFFFFFFFFFFFFFFFF DUP2 GT ISZERO PUSH2 0x4AD JUMPI PUSH2 0x4AC PUSH2 0x2E6 JUMP JUMPDEST JUMPDEST PUSH2 0x4B9 DUP6 DUP3 DUP7 ADD PUSH2 0x439 JUMP JUMPDEST SWAP2 POP POP SWAP3 POP SWAP3 SWAP1 POP JUMP JUMPDEST PUSH2 0x4CC DUP2 PUSH2 0x2EB JUMP JUMPDEST DUP3 MSTORE POP POP JUMP JUMPDEST PUSH1 0x0 PUSH1 0x20 DUP3 ADD SWAP1 POP PUSH2 0x4E7 PUSH1 0x0 DUP4 ADD DUP5 PUSH2 0x4C3 JUMP JUMPDEST SWAP3 SWAP2 POP POP JUMP JUMPDEST PUSH1 0x0 PUSH1 0x20 DUP3 DUP5 SUB SLT ISZERO PUSH2 0x503 JUMPI PUSH2 0x502 PUSH2 0x2E1 JUMP JUMPDEST JUMPDEST PUSH1 0x0 PUSH2 0x511 DUP5 DUP3 DUP6 ADD PUSH2 0x30C JUMP JUMPDEST SWAP2 POP POP SWAP3 SWAP2 POP POP JUMP JUMPDEST PUSH1 0x0 DUP2 MLOAD SWAP1 POP SWAP2 SWAP1 POP JUMP JUMPDEST PUSH1 0x0 DUP3 DUP3 MSTORE PUSH1 0x20 DUP3 ADD SWAP1 POP SWAP3 SWAP2 POP POP JUMP JUMPDEST PUSH1 0x0 JUMPDEST DUP4 DUP2 LT ISZERO PUSH2 0x554 JUMPI DUP1 DUP3 ADD MLOAD DUP2 DUP5 ADD MSTORE PUSH1 0x20 DUP2 ADD SWAP1 POP PUSH2 0x539 JUMP JUMPDEST PUSH1 0x0 DUP5 DUP5 ADD MSTORE POP POP POP POP JUMP JUMPDEST PUSH1 0x0 PUSH2 0x56B DUP3 PUSH2 0x51A JUMP JUMPDEST PUSH2 0x575 DUP2 DUP6 PUSH2 0x525 JUMP JUMPDEST SWAP4 POP PUSH2 0x585 DUP2 DUP6 PUSH1 0x20 DUP7 ADD PUSH2 0x536 JUMP JUMPDEST PUSH2 0x58E DUP2 PUSH2 0x32B JUMP JUMPDEST DUP5 ADD SWAP2 POP POP SWAP3 SWAP2 POP POP JUMP JUMPDEST PUSH1 0x0 PUSH1 0x40 DUP3 ADD SWAP1 POP PUSH2 0x5AE PUSH1 0x0 DUP4 ADD DUP6 PUSH2 0x4C3 JUMP JUMPDEST DUP2 DUP2 SUB PUSH1 0x20 DUP4 ADD MSTORE PUSH2 0x5C0 DUP2 DUP5 PUSH2 0x560 JUMP JUMPDEST SWAP1 POP SWAP4 SWAP3 POP POP POP JUMP JUMPDEST PUSH1 0x0 PUSH1 0x20 DUP3 DUP5 SUB SLT ISZERO PUSH2 0x5DF JUMPI PUSH2 0x5DE PUSH2 0x2E1 JUMP JUMPDEST JUMPDEST PUSH1 0x0 DUP3 ADD CALLDATALOAD PUSH8 0xFFFFFFFFFFFFFFFF DUP2 GT ISZERO PUSH2 0x5FD JUMPI PUSH2 0x5FC PUSH2 0x2E6 JUMP JUMPDEST JUMPDEST PUSH2 0x609 DUP5 DUP3 DUP6 ADD PUSH2 0x439 JUMP JUMPDEST SWAP2 POP POP SWAP3 SWAP2 POP POP JUMP JUMPDEST PUSH32 0x4E487B7100000000000000000000000000000000000000000000000000000000 PUSH1 0x0 MSTORE PUSH1 0x22 PUSH1 0x4 MSTORE PUSH1 0x24 PUSH1 0x0 REVERT JUMPDEST PUSH1 0x0 PUSH1 0x2 DUP3 DIV SWAP1 POP PUSH1 0x1 DUP3 AND DUP1 PUSH2 0x659 JUMPI PUSH1 0x7F DUP3 AND SWAP2 POP JUMPDEST PUSH1 0x20 DUP3 LT DUP2 SUB PUSH2 0x66C JUMPI PUSH2 0x66B PUSH2 0x612 JUMP JUMPDEST JUMPDEST POP SWAP2 SWAP1 POP JUMP JUMPDEST PUSH1 0x0 DUP2 SWAP1 POP DUP2 PUSH1 0x0 MSTORE PUSH1 0x20 PUSH1 0x0 KECCAK256 SWAP1 POP SWAP2 SWAP1 POP JUMP JUMPDEST PUSH1 0x0 PUSH1 0x20 PUSH1 0x1F DUP4 ADD DIV SWAP1 POP SWAP2 SWAP1 POP JUMP JUMPDEST PUSH1 0x0 DUP3 DUP3 SHL SWAP1 POP SWAP3 SWAP2 POP POP JUMP JUMPDEST PUSH1 0x0 PUSH1 0x8 DUP4 MUL PUSH2 0x6D4 PUSH32 0xFFFFFFFFFFFFFFFFFFFFFFFFFFFFFFFFFFFFFFFFFFFFFFFFFFFFFFFFFFFFFFFF DUP3 PUSH2 0x697 JUMP JUMPDEST PUSH2 0x6DE DUP7 DUP4 PUSH2 0x697 JUMP JUMPDEST SWAP6 POP DUP1 NOT DUP5 AND SWAP4 POP DUP1 DUP7 AND DUP5 OR SWAP3 POP POP POP SWAP4 SWAP3 POP POP POP JUMP JUMPDEST PUSH1 0x0 DUP2 SWAP1 POP SWAP2 SWAP1 POP JUMP JUMPDEST PUSH1 0x0 PUSH2 0x71B PUSH2 0x716 PUSH2 0x711 DUP5 PUSH2 0x2EB JUMP JUMPDEST PUSH2 0x6F6 JUMP JUMPDEST PUSH2 0x2EB JUMP JUMPDEST SWAP1 POP SWAP2 SWAP1 POP JUMP JUMPDEST PUSH1 0x0 DUP2 SWAP1 POP SWAP2 SWAP1 POP JUMP JUMPDEST PUSH2 0x735 DUP4 PUSH2 0x700 JUMP JUMPDEST PUSH2 0x749 PUSH2 0x741 DUP3 PUSH2 0x722 JUMP JUMPDEST DUP5 DUP5 SLOAD PUSH2 0x6A4 JUMP JUMPDEST DUP3 SSTORE POP POP POP POP JUMP JUMPDEST PUSH1 0x0 SWAP1 JUMP JUMPDEST PUSH2 0x75E PUSH2 0x751 JUMP JUMPDEST PUSH2 0x769 DUP2 DUP5 DUP5 PUSH2 0x72C JUMP JUMPDEST POP POP POP JUMP JUMPDEST JUMPDEST DUP2 DUP2 LT ISZERO PUSH2 0x78D JUMPI PUSH2 0x782 PUSH1 0x0 DUP3 PUSH2 0x756 JUMP JUMPDEST PUSH1 0x1 DUP2 ADD SWAP1 POP PUSH2 0x76F JUMP JUMPDEST POP POP JUMP JUMPDEST PUSH1 0x1F DUP3 GT ISZERO PUSH2 0x7D2 JUMPI PUSH2 0x7A3 DUP2 PUSH2 0x672 JUMP JUMPDEST PUSH2 0x7AC DUP5 PUSH2 0x687 JUMP JUMPDEST DUP2 ADD PUSH1 0x20 DUP6 LT ISZERO PUSH2 0x7BB JUMPI DUP2 SWAP1 POP JUMPDEST PUSH2 0x7CF PUSH2 0x7C7 DUP6 PUSH2 0x687 JUMP JUMPDEST DUP4 ADD DUP3 PUSH2 0x76E JUMP JUMPDEST POP POP JUMPDEST POP POP POP JUMP JUMPDEST PUSH1 0x0 DUP3 DUP3 SHR SWAP1 POP SWAP3 SWAP2 POP POP JUMP JUMPDEST PUSH1 0x0 PUSH2 0x7F5 PUSH1 0x0 NOT DUP5 PUSH1 0x8 MUL PUSH2 0x7D7 JUMP JUMPDEST NOT DUP1 DUP4 AND SWAP2 POP POP SWAP3 SWAP2 POP POP JUMP JUMPDEST PUSH1 0x0 PUSH2 0x80E DUP4 DUP4 PUSH2 0x7E4 JUMP JUMPDEST SWAP2 POP DUP3 PUSH1 0x2 MUL DUP3 OR SWAP1 POP SWAP3 SWAP2 POP POP JUMP JUMPDEST PUSH2 0x827 DUP3 PUSH2 0x51A JUMP JUMPDEST PUSH8 0xFFFFFFFFFFFFFFFF DUP2 GT ISZERO PUSH2 0x840 JUMPI PUSH2 0x83F PUSH2 0x33C JUMP JUMPDEST JUMPDEST PUSH2 0x84A DUP3 SLOAD PUSH2 0x641 JUMP JUMPDEST PUSH2 0x855 DUP3 DUP3 DUP6 PUSH2 0x791 JUMP JUMPDEST PUSH1 0x0 PUSH1 0x20 SWAP1 POP PUSH1 0x1F DUP4 GT PUSH1 0x1 DUP2 EQ PUSH2 0x888 JUMPI PUSH1 0x0 DUP5 ISZERO PUSH2 0x876 JUMPI DUP3 DUP8 ADD MLOAD SWAP1 POP JUMPDEST PUSH2 0x880 DUP6 DUP3 PUSH2 0x802 JUMP JUMPDEST DUP7 SSTORE POP PUSH2 0x8E8 JUMP JUMPDEST PUSH1 0x1F NOT DUP5 AND PUSH2 0x896 DUP7 PUSH2 0x672 JUMP JUMPDEST PUSH1 0x0 JUMPDEST DUP3 DUP2 LT ISZERO PUSH2 0x8BE JUMPI DUP5 DUP10 ADD MLOAD DUP3 SSTORE PUSH1 0x1 DUP3 ADD SWAP2 POP PUSH1 0x20 DUP6 ADD SWAP5 POP PUSH1 0x20 DUP2 ADD SWAP1 POP PUSH2 0x899 JUMP JUMPDEST DUP7 DUP4 LT ISZERO PUSH2 0x8DB JUMPI DUP5 DUP10 ADD MLOAD PUSH2 0x8D7 PUSH1 0x1F DUP10 AND DUP3 PUSH2 0x7E4 JUMP JUMPDEST DUP4 SSTORE POP JUMPDEST PUSH1 0x1 PUSH1 0x2 DUP9 MUL ADD DUP9 SSTORE POP POP POP JUMPDEST POP POP POP POP POP POP JUMP JUMPDEST PUSH1 0x0 DUP2 SWAP1 POP SWAP3 SWAP2 POP POP JUMP JUMPDEST PUSH1 0x0 PUSH2 0x906 DUP3 PUSH2 0x51A JUMP JUMPDEST PUSH2 0x910 DUP2 DUP6 PUSH2 0x8F0 JUMP JUMPDEST SWAP4 POP PUSH2 0x920 DUP2 DUP6 PUSH1 0x20 DUP7 ADD PUSH2 0x536 JUMP JUMPDEST DUP1 DUP5 ADD SWAP2 POP POP SWAP3 SWAP2 POP POP JUMP JUMPDEST PUSH1 0x0 PUSH2 0x938 DUP3 DUP5 PUSH2 0x8FB JUMP JUMPDEST SWAP2 POP DUP2 SWAP1 POP SWAP3 SWAP2 POP POP JUMP INVALID LOG2 PUSH5 0x6970667358 0x22 SLT KECCAK256 STOP 0xB2 DUP13 0xE1 RETURNDATACOPY PUSH19 0x8B4405489F71A4F00CD92D8A953D5DA0A9FD17 0xBD 0x4F SWAP16 0x1F PUSH27 0x478864736F6C634300081C00330000000000000000000000000000 "
        },
        "methodIdentifiers": {
          "addPersonToList(uint256,string)": "06d438fc",
          "favoriteNumber()": "471f7cdf",
          "listOfPeople(uint256)": "2ebce631",
          "nameToFavNumber(string)": "43ec8f47",
          "retrieve()": "2e64cec1",
          "store(uint256)": "6057361d"
        }
      }
    }
  }
}